:020000040800F2
:100000000028002019190008A9180008AF180008D6
:10001000B5180008BB180008C1180008000000004F
:10002000000000000000000000000000C7180008E9
:10003000D318000800000000DF180008EB180008C3
:1000400061190008611900086119000861190008A8
:100050006119000861190008611900086119000898
:100060006119000861190008611900086119000888
:100070006119000861190008611900086119000878
:100080006119000861190008611900086119000868
:100090006119000861190008611900086119000858
:1000A0006119000861190008611900086119000848
:1000B000F918000861190008000000006119000823
:1000C000611900080000000000000000611900082C
:1000D000000000006119000861190008000000001C
:1000E000611900086119000861190008000000008A
:1000F0000000000000000000000000000000000000
:0C01000000000000000000005FF808F1A3
:10010C0010B5054C237833B9044B13B10448AFF345
:10011C0000800123237010BD680000200000000047
:10012C00902F000808B5034B1BB103490348AFF3EC
:10013C00008008BD000000006C000020902F00081B
:10014C0080B500AF002204210E4801F006FF00220A
:10015C0008210C4801F001FF00221021094801F090
:10016C00FCFE00222021074801F0F7FE002240216E
:10017C00044801F0F2FE00228021024801F0EDFE5D
:10018C0000BF80BD0008014080B500AFA44B1B68C8
:10019C00013B042B00F2588201A252F823F000BF5D
:1001AC00C1010008250200082503000859040008B5
:1001BC00590500089A4B02221A609A4B1B684FF49F
:1001CC007A7202FB03F3184601F076FA4FF47A7058
:1001DC0001F0A6FAFA2001F0D7FA934B1B68934A68
:1001EC001360904B1B68924A136000F051FA03465F
:1001FC00002B00F02B82FFF7A3FF894B0B221A6018
:10020C0042F2107001F058FA4FF47A7001F088FA4B
:10021C00FA2001F0B9FA19E2844B1B68844A12687F
:10022C001146184601F0A6F8824B1B68012B11D120
:10023C00814B1B685A1C80490A60184601F06CF807
:10024C007D4B1B68012B02DD7B4B00221A60FA20D0
:10025C0001F09AFA794B1B68012B0DD1734B1B687B
:10026C00013B724A1360724B1B68013B704A13606E
:10027C004FF47A7001F054FA01220421704801F015
:10028C006CFE002208216E4801F067FE002210214E
:10029C006B4801F062FE00222021694801F05DFEEE
:1002AC0000224021664801F058FE0122802164485A
:1002BC0001F053FE634B1B68012B16D1584B0322E4
:1002CC001A60614B1B684FF47A7202FB03F31846F9
:1002DC0001F0F2F94FF47A7001F022FAFA2001F0F1
:1002EC0053FA594B1B68524A136000F0D1F903467C
:1002FC00002B00F0AD81FFF723FF494B0B221A6056
:10030C0042F2107001F0D8F94FF4FA7001F008FACB
:10031C00FA2001F039FA9BE1444B1B68444A1268FD
:10032C001146184601F026F8424B1B68012B11D1DF
:10033C00414B1B685A1C40490A60184600F0ECFF00
:10034C003D4B1B68012B02DD3B4B00221A60FA204F
:10035C0001F01AFA394B1B68012B0DD1334B1B687A
:10036C00013B324A1360324B1B68013B304A13602D
:10037C004FF47A7001F0D4F901220421304801F0D5
:10038C00ECFD002208212E4801F0E7FD002210218F
:10039C002B4801F0E2FD00222021294801F0DDFD6F
:1003AC0001224021264801F0D8FD0022802124485A
:1003BC0001F0D3FD234B1B68012B1AD1194B1B6881
:1003CC001A4A1360184B1B68194A1360144B042209
:1003DC001A60144B1B684FF47A7202FB03F3184635
:1003EC0001F06AF94FF47A7001F09AF9FA2001F0F1
:1003FC00CBF900F04DF90346002B00F02B81FFF7F1
:10040C009FFE074B0B221A6042F2107001F054F958
:10041C004FF4FA7001F084F9FA2001F0B5F919E102
:10042C009C00002008000020000000208400002018
:10043C0088000020B40000208C000020AC000020BC
:10044C0000080140A400002004000020854B1B681C
:10045C00854A12681146184600F08CFF834B1B68C6
:10046C00012B11D1824B1B685A1C81490A6018461A
:10047C0000F052FF7E4B1B68012B02DD7C4B0022EF
:10048C001A60FA2001F080F97A4B1B68012B0DD110
:10049C00744B1B68013B734A1360734B1B68013B25
:1004AC00714A13604FF47A7001F03AF9002204217A
:1004BC00714801F052FD002208216F4801F04DFDFA
:1004CC00012210216C4801F048FD012220216A48CC
:1004DC0001F043FD00224021674801F03EFD00225F
:1004EC008021654801F039FD644B1B68012B16D146
:1004FC00634B1B685B4A1360624B05221A60604BAE
:10050C001B684FF47A7202FB03F3184601F0D4F81F
:10051C004FF47A7001F004F9FA2001F035F900F08B
:10052C00B7F80346002B00F09780FFF709FE554BF8
:10053C000B221A6042F2107001F0BEF84FF4FA7000
:10054C0001F0EEF8FA2001F01FF985E0454B1B682D
:10055C00454A12681146184600F00CFF434B1B68C5
:10056C00012B11D1424B1B685A1C41490A60184699
:10057C0000F0D2FE3E4B1B68012B02DD3C4B0022EF
:10058C001A60FA2001F000F93A4B1B68012B0DD1CF
:10059C00344B1B68013B334A1360334B1B68013BE4
:1005AC00314A13604FF47A7001F0BAF8002204213A
:1005BC00314801F0D2FC012208212F4801F0CDFC7A
:1005CC00002210212C4801F0C8FC012220212A48CD
:1005DC0001F0C3FC00224021274801F0BEFC0022A0
:1005EC008021254801F0B9FC244B1B68012B15D147
:1005FC00254B1B681B4A1360244B1B681A4A13605B
:10060C00204B02221A604FF4FA6001F055F84FF4B7
:10061C007A7001F085F8FA2001F0B6F800F038F89D
:10062C000346002B1AD0FFF78BFD164B0B221A60DA
:10063C0042F2107001F040F84FF4FA7001F070F8CB
:10064C00FA2001F0A1F809E000BF08E000BF06E0C5
:10065C0000BF04E000BF02E000BF00E000BF00BF2D
:10066C0080BD00BF8400002088000020B400002062
:10067C008C000020AC00002000080140A4000020E9
:10068C00040000209C000020000000200800002036
:10069C0080B400AF064B1B68012B04D1044B002225
:1006AC001A60012300E000231846BD4680BC704749
:1006BC009000002080B400AF034B01221A6000BFF1
:1006CC00BD4680BC704700BF9000002080B500AFD5
:1006DC00244B1B68244A1360244B1B68214A13606B
:1006EC004FF40051224801F021FC03461A461F4BDF
:1006FC001A601D4B1A681B4B1B689A4230D1194B60
:10070C001A681A4B1B689A422AD1184B1A68194B53
:10071C001B689A4210D0154B1B68164A1360154B78
:10072C001B68002B1CD1144B96221A60FFF7C2FFDA
:10073C00124B01221A6013E00F4B1B68013B0E4A4F
:10074C0013600D4B1B68002B0AD10B4B4FF4FA7244
:10075C001A60084B1B68002B02D1084B01221A604F
:10076C0000BF80BD100000200C00002014000020F1
:10077C0000080140180000201C0000209000002000
:10078C0080B400AF064B1B68012B04D1044B002234
:10079C001A60022300E000231846BD4680BC704757
:1007AC009400002080B400AF034B01221A6000BFFC
:1007BC00BD4680BC704700BF9400002080B500AFE0
:1007CC00244B1B68244A1360244B1B68214A13607A
:1007DC004FF48041224801F0A9FB03461A461F4BF7
:1007EC001A601C4B1A681C4B1B689A4230D1194B6F
:1007FC001A681A4B1B689A422AD1184B1A68194B63
:10080C001B689A4210D0154B1B68164A1360154B87
:10081C001B68002B1CD1144B96221A60FFF7C2FFE9
:10082C00124B01221A6013E00F4B1B68013B0E4A5E
:10083C0013600D4B1B68002B0AD10B4B4FF4FA7253
:10084C001A60084B1B68002B02D1084B01221A605E
:10085C0000BF80BD240000202000002028000020C4
:10086C00000801402C0000203000002094000020E3
:10087C0080B400AF064B1B68012B04D1044B002243
:10088C001A60012300E000231846BD4680BC704767
:10089C009800002080B400AF034B01221A6000BF07
:1008AC00BD4680BC704700BF9800002080B500AFEB
:1008BC00244B1B68244A1360244B1B68214A136089
:1008CC004FF40041224801F031FB03461A461F4BFE
:1008DC001A601C4B1A681C4B1B689A4230D1194B7E
:1008EC001A681A4B1B689A422AD1184B1A68194B72
:1008FC001B689A4210D0154B1B68164A1360154B97
:10090C001B68002B1CD1144B96221A60FFF7C2FFF8
:10091C00124B01221A6013E00F4B1B68013B0E4A6D
:10092C0013600D4B1B68002B0AD10B4B4FF4FA7262
:10093C001A60084B1B68002B02D1084B01221A606D
:10094C0000BF80BD38000020340000203C00002097
:10095C0000080140400000204400002098000020C6
:10096C0080B582B000AF78607B68092B00F2808183
:10097C0001A252F823F000BFAD090008F5090008E8
:10098C003D0A0008850A0008CD0A0008150B00086E
:10099C005D0B0008A50B0008ED0B0008350C0008DA
:1009AC0000220121B44801F0D8FA00220221B248F9
:1009BC0001F0D3FA00220421AF4801F0CEFA002254
:1009CC000821AD4801F0C9FA00221021AA4801F013
:1009DC00C4FA00222021A84801F0BFFA01224021CC
:1009EC00A54801F0BAFA43E101220121A24801F025
:1009FC00B4FA00220221A04801F0AFFA002204212F
:100A0C009D4801F0AAFA012208219B4801F0A5FAA1
:100A1C0001221021984801F0A0FA012220219648C9
:100A2C0001F09BFA01224021934801F096FA1FE154
:100A3C0000220121904801F090FA002202218E48F8
:100A4C0001F08BFA012204218B4801F086FA002276
:100A5C000821894801F081FA00221021864801F012
:100A6C007CFA01222021844801F077FA00224021EF
:100A7C00814801F072FAFBE0002201217E4801F06E
:100A8C006CFA002202217C4801F067FA0022042152
:100A9C00794801F062FA00220821774801F05DFAEA
:100AAC0001221021744801F058FA012220217248C9
:100ABC0001F053FA002240216F4801F04EFAD7E0C2
:100ACC00012201216C4801F048FA002202216A48F7
:100ADC0001F043FA00220421674801F03EFA01229A
:100AEC000821654801F039FA01221021624801F011
:100AFC0034FA00222021604801F02FFA0022402114
:100B0C005D4801F02AFAB3E0002201215A4801F0B5
:100B1C0024FA01220221584801F01FFA0022042174
:100B2C00554801F01AFA00220821534801F015FA31
:100B3C0001221021504801F010FA002220214E48C9
:100B4C0001F00BFA002240214B4801F006FA8FE02D
:100B5C0000220121484801F000FA012202214648F6
:100B6C0001F0FBF900220421434801F0F6F90022C0
:100B7C000821414801F0F1F9002210213E4801F012
:100B8C00ECF9002220213C4801F0E7F90022402139
:100B9C00394801F0E2F96BE000220121364801F0FE
:100BAC00DCF900220221344801F0D7F9002204219B
:100BBC00314801F0D2F9012208212F4801F0CDF97A
:100BCC00012210212C4801F0C8F9012220212A48C9
:100BDC0001F0C3F901224021274801F0BEF947E09A
:100BEC0000220121244801F0B8F9002202212248F8
:100BFC0001F0B3F9002204211F4801F0AEF90022E4
:100C0C0008211D4801F0A9F9002210211A4801F011
:100C1C00A4F900222021184801F09FF9002240215C
:100C2C00154801F09AF923E000220121124801F045
:100C3C0094F900220221104801F08FF900220421BE
:100C4C000D4801F08AF9002208210B4801F085F9C2
:100C5C0001221021084801F080F9002220210648C9
:100C6C0001F07BF900224021034801F076F900BF26
:100C7C0000BF0837BD4680BD000C014080B582B076
:100C8C0000AF78607B68092B00F2BC8101A252F89E
:100C9C0023F000BFC90C00081D0D0008710D0008E1
:100CAC00C50D0008190E00086D0E0008C10E0008D5
:100CBC00150F0008690F0008BD0F000800228021E5
:100CCC00D24801F04AF900224FF48071CF4801F06C
:100CDC0044F900224FF40071CC4801F03EF9002297
:100CEC004FF48061C94801F038F900224FF40061DB
:100CFC00C64801F032F900224FF48051C34801F08C
:100D0C002CF901224FF40051C04801F026F979E189
:100D1C0001228021BD4801F020F900224FF480719E
:100D2C00BA4801F01AF900224FF40071B74801F0EB
:100D3C0014F901224FF48061B44801F00EF901223C
:100D4C004FF40061B14801F008F901224FF48051D1
:100D5C00AE4801F002F901224FF40051AB4801F00A
:100D6C00FCF84FE100228021A84801F0F6F800229F
:100D7C004FF48071A54801F0F0F801224FF4007196
:100D8C00A24801F0EAF800224FF480619F4801F07C
:100D9C00E4F800224FF400619C4801F0DEF80122D7
:100DAC004FF48051994801F0D8F800224FF40051CB
:100DBC00964801F0D2F825E100228021934801F0F9
:100DCC00CCF800224FF48071904801F0C6F8002254
:100DDC004FF400718D4801F0C0F800224FF480618F
:100DEC008A4801F0BAF801224FF40061874801F0FB
:100DFC00B4F801224FF48051844801F0AEF800227F
:100E0C004FF40051814801F0A8F8FBE00122802149
:100E1C007E4801F0A2F800224FF480717B4801F06B
:100E2C009CF800224FF40071784801F096F80122EA
:100E3C004FF48061754801F090F801224FF4006185
:100E4C00724801F08AF800224FF480516F4801F08B
:100E5C0084F800224FF400516C4801F07EF8D1E088
:100E6C0000228021694801F078F801224FF480714A
:100E7C00664801F072F800224FF40071634801F0EB
:100E8C006CF800224FF48061604801F066F8012292
:100E9C004FF400615D4801F060F800224FF480517E
:100EAC005A4801F05AF800224FF40051574801F00B
:100EBC0054F8A7E000228021544801F04EF801229A
:100ECC004FF48071514801F048F800224FF4007142
:100EDC004E4801F042F800224FF480614B4801F07B
:100EEC003CF800224FF40061484801F036F800222B
:100EFC004FF48051454801F030F800224FF4005176
:100F0C00424801F02AF87DE0002280213F4801F0A0
:100F1C0024F800224FF480713C4801F01EF80022A6
:100F2C004FF40071394801F018F801224FF4806138
:100F3C00364801F012F801224FF40061334801F0F9
:100F4C000CF801224FF48051304801F006F80122D0
:100F5C004FF400512D4801F000F853E0002280219D
:100F6C002A4800F0FAFF00224FF48071274800F065
:100F7C00F4FF00224FF40071244800F0EEFF002231
:100F8C004FF48061214800F0E8FF00224FF400612B
:100F9C001E4800F0E2FF00224FF480511B4800F085
:100FAC00DCFF00224FF40051184800F0D6FF29E076
:100FBC0000228021154800F0D0FF00224FF48071F0
:100FCC00124800F0CAFF00224FF400710F4800F0E5
:100FDC00C4FF00224FF480610C4800F0BEFF0122D8
:100FEC004FF40061094800F0B8FF00224FF4805123
:100FFC00064800F0B2FF00224FF40051034800F005
:10100C00ACFF00BF00BF0837BD4680BD000C0140DF
:10101C0080B500AFB54B1B680D2B00F0F0800D2B8D
:10102C0000F35E810B2B02D00C2B77D058E1B04B28
:10103C001B681946012000F09DF9AE4B1B68012B73
:10104C0011D1AD4B1B685A1CAB490A60184600F015
:10105C0063F9A94B1B68012B02DDA74B00221A6018
:10106C00FA2000F091FBA54B1B68012B0BD104213E
:10107C00A34800F08AFF2021A14800F086FF4FF41E
:10108C00FA7000F04DFB9F4B1B68012B0BD1974B5B
:10109C0002221A609C4B1B684FF47A7202FB03F31A
:1010AC00184600F009FBFFF7F3FA0346012B0FD1AA
:1010BC00FFF746F88D4B0C221A6042F2107000F0CC
:1010CC00FBFA4FF4FA7000F02BFBFA2000F05CFBFB
:1010DC00FFF756FB0346002B12D0854B1B680133E0
:1010EC00834A1360824B1B68632B02DD804B012209
:1010FC001A6042F2107000F0DFFAFA2000F044FBA4
:10110C00FFF7B6FB0346002B00F0EC80784B1A6817
:10111C007E4B1B68D31A7C4A1360E3E07B4B1B6845
:10112C001946022000F026F9724B1B68012B11D1D5
:10113C00714B1B685A1C70490A60184600F0ECF899
:10114C006D4B1B68012B02DD6B4B00221A60FA20E1
:10115C0000F01AFB694B1B68012B0BD10821684866
:10116C0000F013FF4021664800F00FFF4FF4FA70B7
:10117C0000F0D6FA634B1B68012B06D15B4B0222A5
:10118C001A6041F2883000F097FAFFF781FA0346B3
:10119C00012B0FD1FEF7D4FF544B0D221A6042F2F3
:1011AC00107000F089FA4FF4FA7000F0B9FAFA20D6
:1011BC0000F0EAFAFFF7E4FA0346002B12D0534B87
:1011CC001B680133514A1360504B1B68632B02DDC3
:1011DC00474B01221A6042F2107000F06DFAFA20AF
:1011EC0000F0D2FAFFF744FB0346002B7CD0404BB7
:1011FC001A68464B1B68D31A434A136074E0424B7F
:10120C001B681946032000F0B5F83A4B1B68012BFC
:10121C0011D1394B1B685A1C37490A60184600F02B
:10122C007BF8354B1B68012B02DD334B00221A6017
:10123C00FA2000F0A9FA314B1B68012B0BD11021BD
:10124C002F4800F0A2FE80212D4800F09EFE4FF4A6
:10125C00FA7000F065FA2B4B1B68012B06D1234B5F
:10126C0002221A6041F2883000F026FAFFF710FAD9
:10127C000346012B0FD1FEF763FF1C4B0B221A60A8
:10128C0042F2107000F018FA4FF4FA7000F048FABD
:10129C00FA2000F079FAFFF773FA0346002B12D00C
:1012AC00194B1B680133184A1360174B1B68632BCF
:1012BC0002DD154B01221A6042F2107000F0FCF9AD
:1012CC00FA2000F061FAFFF7D3FA0346002B1FD087
:1012DC000D4B1A680D4B1B681344054A136017E03D
:1012EC0000BF16E000BF14E000BF12E09C0000201D
:1012FC0000000020B4000020B8000020AC0000204A
:10130C0000080140A4000020080000200400002078
:10131C0000BF00BF80BD00BF80B582B000AF786059
:10132C007B68002B03D07B68012B0ED01BE0104B8D
:10133C001B681846FFF714FB0D4B9B681846FFF70C
:10134C009DFC786800F074F90DE0094B5B68184659
:10135C00FFF706FB064BDB681846FFF78FFC786837
:10136C0000F066F900BF00BF0837BD4680BD00BF66
:10137C004800002080B483B000AF786039607B688F
:10138C00184A82FB03129210DB17D31A164A136009
:10139C007968144B83FB01239A10CB17D21A13468E
:1013AC009B0013445B00CA1A0F4B5A603B680D4AF2
:1013BC0082FB03129210DB17D31A0B4A9360396825
:1013CC00084B83FB01239A10CB17D21A13469B00B0
:1013DC0013445B00CA1A044BDA6000BF0C37BD46DD
:1013EC0080BC7047676666664800002080B500AF19
:1013FC0000F0B2FA00F016F800F09CF800F09AF841
:10140C0000F04CF8054801F005FA054B01221A6072
:10141C00FEF7BAFEFFF7FCFDFAE700BFBC000020A8
:10142C009C00002080B590B000AF07F11803282273
:10143C000021184601F09EFD3B1D00221A605A60E7
:10144C009A60DA601A610223BB610123BB6210232C
:10145C00FB6200237B6307F11803184600F0AEFD16
:10146C000346002B01D000F0DDF80F237B60002336
:10147C00BB600023FB6000233B6100237B613B1DB1
:10148C000021184601F01AF80346002B01D000F099
:10149C00C9F800BF4037BD4680BD000080B586B09E
:1014AC0000AF07F1080300221A605A609A60DA60F4
:1014BC003B4600221A605A601D4B4FF080421A6066
:1014CC001B4B41F63F725A60194B00229A60184B25
:1014DC000922DA60164B00221A61154B00229A6120
:1014EC00134801F047F90346002B01D000F09AF89D
:1014FC004FF48053BB6007F1080319460C4801F008
:10150C00C5FA0346002B01D000F08CF800233B6099
:10151C0000237B603B461946054801F09DFC0346C1
:10152C00002B01D000F07EF800BF1837BD4680BDFF
:10153C00BC00002080B586B000AF07F10803002284
:10154C001A605A609A60DA60294B9B69284A43F00A
:10155C0004039361264B9B6903F004037B607B6857
:10156C00234B9B69224A43F008039361204B9B69F0
:10157C0003F008033B603B68002240F6FC711D48F9
:10158C0000F0EBFC002243F6FF711B4800F0E5FC79
:10159C0040F6FC73BB600123FB6000233B6102231C
:1015AC007B6107F108031946124800F045FB43F62E
:1015BC00FF73BB600123FB6000233B6102237B6153
:1015CC0007F1080319460C4800F036FB4FF4604352
:1015DC00BB600023FB6001233B6107F10803194644
:1015EC00044800F029FB00BF1837BD4680BD00BF82
:1015FC000010024000080140000C014080B582B090
:10160C0000AF786000F072F800F0A4F800F0D6F8A3
:10161C00FFF75CF8FFF7D2F8FFF748F900BF08377F
:10162C00BD4680BD80B400AF72B600BFFEE70000BF
:10163C0080B582B000AF78607B68002B03D07B68EC
:10164C00012B19D031E000224FF48071194800F0C1
:10165C0084FC01224FF40071164800F07EFC00223D
:10166C004FF48061134800F078FC01224FF40061C4
:10167C00104800F072FC18E001224FF480710D4804
:10168C0000F06BFC00224FF400710A4800F065FC7E
:10169C0001224FF48061074800F05FFC00224FF4F8
:1016AC000061044800F059FC00BF00BF0837BD467C
:1016BC0080BD00BF0008014080B483B000AF7860EB
:1016CC00074B1B687A6892FBF3F3064A1360064BD0
:1016DC0000221A6000BF0C37BD4680BC704700BFAB
:1016EC0058000020A0000020A400002080B400AF0F
:1016FC00094B1B68002B0BDD074B1B68013B064A93
:10170C001360054B1B68002B02D1044B01221A609D
:10171C0000BFBD4680BC7047A0000020A400002084
:10172C0080B483B000AF7860074B1B687A6892FB7B
:10173C00F3F3064A1360064B00221A6000BF0C3705
:10174C00BD4680BC704700BF58000020A800002098
:10175C00AC00002080B400AF094B1B68002B0BDDE4
:10176C00074B1B68013B064A1360054B1B68002B9B
:10177C0002D1044B01221A6000BFBD4680BC7047E9
:10178C00A8000020AC00002080B483B000AF7860CB
:10179C00074B1B687A6892FBF3F3064A1360064BFF
:1017AC0000221A6000BF0C37BD4680BC704700BFDA
:1017BC0058000020B0000020B400002080B400AF1E
:1017CC00094B1B68002B0BDD074B1B68013B064AC2
:1017DC001360054B1B68002B02D1044B01221A60CD
:1017EC0000BFBD4680BC7047B0000020B400002094
:1017FC0080B485B000AF154B9B69144A43F00103CC
:10180C009361124B9B6903F00103BB60BB680F4BE8
:10181C00DB690E4A43F08053D3610C4BDB6903F058
:10182C0080537B607B680A4B5B68FB60FB6823F032
:10183C00E063FB60FB6843F08063FB60044AFB6879
:10184C00536000BF1437BD4680BC70470010024087
:10185C000000014080B584B000AF78607B681B68E5
:10186C00B3F1804F13D10C4BDB690B4A43F00103EE
:10187C00D361094BDB6903F00103FB60FB680022B9
:10188C0000211C2000F0A1F91C2000F0BAF900BFC7
:10189C001037BD4680BD00BF0010024080B400AFC1
:1018AC00FEE780B400AFFEE780B400AFFEE780B483
:1018BC0000AFFEE780B400AFFEE780B400AF00BF1E
:1018CC00BD4680BC704780B400AF00BFBD4680BC35
:1018DC00704780B400AF00BFBD4680BC704780B578
:1018EC0000AF00F07FF800BF80BD000080B500AFF6
:1018FC00024800F0DBFF00BF80BD00BFBC00002031
:10190C0080B400AF00BFBD4680BC7047FFF7F8FF46
:10191C000B480C490C4A002302E0D458C450043341
:10192C00C4188C42F9D3094A094C002301E0136016
:10193C000432A242FBD301F0F9FAFFF757FD7047CE
:10194C000000002068000020D42F00086800002050
:10195C0008010020FEE7000080B500AF084B1B68B3
:10196C00074A43F010031360032000F023F90F2003
:10197C0000F008F8FFF73CFF0023184680BD00BFBD
:10198C000020024080B582B000AF7860124B1A681C
:10199C00124B1B7819464FF47A73B3FBF1F3B2FB7D
:1019AC00F3F3184600F03BF90346002B01D001235A
:1019BC000EE07B680F2B0AD8002279684FF0FF30BD
:1019CC0000F003F9064A7B681360002300E0012352
:1019DC0018460837BD4680BD5C000020640000201E
:1019EC006000002080B400AF054B1B781A46054BF5
:1019FC001B681344034A136000BFBD4680BC70478C
:101A0C00640000200401002080B400AF024B1B686E
:101A1C001846BD4680BC70470401002080B485B0D8
:101A2C0000AF78607B6803F00703FB600C4BDB684E
:101A3C00BB60BA684FF6FF031340BB60FB681A0229
:101A4C00BB68134343F0BF6343F40033BB60044AE9
:101A5C00BB68D36000BF1437BD4680BC704700BF65
:101A6C0000ED00E080B400AF044BDB681B0A03F010
:101A7C0007031846BD4680BC704700BF00ED00E070
:101A8C0080B483B000AF0346FB7197F90730002B8D
:101A9C000BDBFB7903F01F02064997F907305B0952
:101AAC00012000FA02F241F8232000BF0C37BD469A
:101ABC0080BC704700E100E080B483B000AF034607
:101ACC003960FB7197F90730002B0ADB3B68DAB2FF
:101ADC000C4997F907301201D2B20B4483F800235A
:101AEC000AE03B68DAB20849FB7903F00F03043BC8
:101AFC001201D2B20B441A7600BF0C37BD4680BC23
:101B0C00704700BF00E100E000ED00E080B489B058
:101B1C0000AFF860B9607A60FB6803F00703FB6103
:101B2C00FB69C3F10703042B28BF0423BB61FB69CA
:101B3C000433062B02D9FB69033B00E000237B61D5
:101B4C004FF0FF32BB6902FA03F3DA43BB681A4069
:101B5C007B699A404FF0FF317B6901FA03F3D9435B
:101B6C007B680B40134318462437BD4680BC704736
:101B7C0080B582B000AF78607B68013BB3F1807FA9
:101B8C0001D301230FE00A4A7B68013B53600F210C
:101B9C004FF0FF30FFF790FF054B00229A60044B8B
:101BAC0007221A60002318460837BD4680BD00BFC7
:101BBC0010E000E080B582B000AF78607868FFF785
:101BCC002DFF00BF0837BD4680BD80B586B000AF85
:101BDC000346B9607A60FB7300237B61FFF742FF19
:101BEC0078617A68B9687869FFF790FF024697F9CF
:101BFC000F3011461846FFF75FFF00BF1837BD4680
:101C0C0080BD80B582B000AF0346FB7197F90730F9
:101C1C001846FFF735FF00BF0837BD4680BD80B5BD
:101C2C0082B000AF78607868FFF7A2FF03461846D1
:101C3C000837BD4680BD000080B48BB000AF786023
:101C4C00396000237B6200233B6248E101227B6AFE
:101C5C0002FA03F3FB613B681B68FA691340BB6132
:101C6C00BA69FB699A4240F037813B685B68A34ACA
:101C7C0093425ED0A14A934275D8A14A934258D060
:101C8C009F4A93426FD89F4A934252D09D4A9342A7
:101C9C0069D89D4A93424CD09B4A934263D89B4A45
:101CAC00934246D0994A93425DD8122B2AD8122BD4
:101CBC0059D801A252F823F03F1D0008191D000845
:101CCC002B1D00086D1D0008731D0008731D0008F6
:101CDC00731D0008731D0008731D0008731D000898
:101CEC00731D0008731D0008731D0008731D000888
:101CFC00731D0008731D0008731D0008211D0008CA
:101D0C00351D0008824A934213D02CE03B68DB68F7
:101D1C003B6229E03B68DB6804333B6224E03B68B0
:101D2C00DB6808333B621FE03B68DB680C333B62CB
:101D3C001AE03B689B68002B02D104233B6213E042
:101D4C003B689B68012B05D108233B627B68FA69D1
:101D5C001A6109E008233B627B68FA695A6103E067
:101D6C0000233B6200E000BFBB69FF2B01D87B68FE
:101D7C0001E07B6804337B61BB69FF2B02D87B6A73
:101D8C009B0002E07B6A083B9B003B617B691A6805
:101D9C000F213B6901FA03F3DB431A40396A3B69B3
:101DAC0001FA03F31A437B691A603B685B6803F022
:101DBC008053002B00F09080564B9B69554A43F0A2
:101DCC0001039361534B9B6903F00103BB60BB6838
:101DDC00514A7B6A9B08023352F82330FB607B6AC2
:101DEC0003F003039B000F2202FA03F3DB43FA68B0
:101DFC001340FB607B68494A93420DD07B68484A8C
:101E0C00934207D07B68474A934201D1022304E0F6
:101E1C00032302E0012300E000237A6A02F00302AC
:101E2C0092009340FA681343FB603B497B6A9B0822
:101E3C000233FA6841F823203B685B6803F4801393
:101E4C00002B06D0384B9A683749BB6913438B601B
:101E5C0006E0354B9A68BB69DB43334913408B6012
:101E6C003B685B6803F40013002B06D02E4BDA683A
:101E7C002D49BB691343CB6006E02B4BDA68BB6979
:101E8C00DB4329491340CB603B685B6803F40033A8
:101E9C00002B06D0244B5A682349BB6913434B6073
:101EAC0006E0214B5A68BB69DB431F4913404B606A
:101EBC003B685B6803F48033002B06D01A4B1A681E
:101ECC001949BB6913430B6006E0174B1A68BB69D1
:101EDC00DB43154913400B607B6A01337B623B6823
:101EEC001A687B6A22FA03F3002B7FF4AFAE00BFB3
:101EFC0000BF2C37BD4680BC704700BF00003210BD
:101F0C0000003110000022100000211000001210FF
:101F1C0000001110001002400000014000080140B8
:101F2C00000C0140001001400004014080B485B059
:101F3C0000AF78600B467B807B689A687B88134087
:101F4C00002B02D00123FB7301E00023FB73FB7B0E
:101F5C0018461437BD4680BC704780B483B000AFC0
:101F6C0078600B467B8013467B707B78002B03D00C
:101F7C007A887B681A6103E07B881A047B681A6193
:101F8C0000BF0C37BD4680BC704780B485B000AF35
:101F9C0078600B467B807B68DB68FB607A88FB682B
:101FAC0013401A04FB68D9437B880B401A437B68A7
:101FBC001A6100BF1437BD4680BC704780B586B02F
:101FCC0000AF78607B68002B01D101236CE27B6849
:101FDC001B6803F00103002B00F08780924B5B68B9
:101FEC0003F00C03042B0CD08F4B5B6803F00C0339
:101FFC00082B12D18C4B5B6803F48033B3F5803F14
:10200C000BD1894B1B6803F40033002B6CD07B681D
:10201C005B68002B68D1012346E27B685B68B3F5F3
:10202C00803F06D1804B1B687F4A43F4803313609A
:10203C002EE07B685B68002B0CD17B4B1B687A4ACB
:10204C0023F480331360784B1B68774A23F4802386
:10205C0013601DE07B685B68B3F5A02F0CD1724B4D
:10206C001B68714A43F4802313606F4B1B686E4AE4
:10207C0043F4803313600BE06B4B1B686A4A23F408
:10208C0080331360684B1B68674A23F4802313600A
:10209C007B685B68002B13D0FFF7B6FC386108E057
:1020AC00FFF7B2FC02463B69D31A642B01D9032318
:1020BC00FAE15D4B1B6803F40033002BF0D014E005
:1020CC00FFF7A2FC386108E0FFF79EFC02463B6973
:1020DC00D31A642B01D90323E6E1534B1B6803F499
:1020EC000033002BF0D100E000BF7B681B6803F0CD
:1020FC000203002B63D04C4B5B6803F00C03002BEA
:10210C000BD0494B5B6803F00C03082B1CD1464BDE
:10211C005B6803F48033002B16D1434B1B6803F030
:10212C000203002B05D07B681B69012B01D0012316
:10213C00BAE13D4B1B6823F0F8027B685B69DB005E
:10214C00394913430B603AE07B681B69002B20D0A4
:10215C00364B01221A60FFF757FC386108E0FFF795
:10216C0053FC02463B69D31A022B01D903239BE192
:10217C002D4B1B6803F00203002BF0D02A4B1B687D
:10218C0023F0F8027B685B69DB00274913430B6083
:10219C0015E0264B00221A60FFF736FC386108E088
:1021AC00FFF732FC02463B69D31A022B01D90323F9
:1021BC007AE11D4B1B6803F00203002BF0D17B6806
:1021CC001B6803F00803002B3AD07B689B69002B3B
:1021DC0019D0174B01221A60FFF716FC386108E082
:1021EC00FFF712FC02463B69D31A022B01D90323D9
:1021FC005AE10D4B5B6A03F00203002BF0D0012077
:10220C0000F09AFA1CE00A4B00221A60FFF7FCFB64
:10221C0038610FE0FFF7F8FB02463B69D31A022B3B
:10222C0008D9032340E100BF0010024000004242E5
:10223C00800442429E4B5B6A03F00203002BE9D1FF
:10224C007B681B6803F00403002B00F0A6800023BE
:10225C00FB75974BDB6903F08053002B0DD1944B2E
:10226C00DB69934A43F08053D361914BDB6903F0F4
:10227C008053BB60BB680123FB758E4B1B6803F45A
:10228C008073002B18D18B4B1B688A4A43F48073E4
:10229C001360FFF7B9FB386108E0FFF7B5FB0246A6
:1022AC003B69D31A642B01D90323FDE0814B1B68D6
:1022BC0003F48073002BF0D07B68DB68012B06D114
:1022CC007B4B1B6A7A4A43F0010313622DE07B6857
:1022DC00DB68002B0CD1764B1B6A754A23F001038B
:1022EC001362734B1B6A724A23F0040313621CE0E3
:1022FC007B68DB68052B0CD16D4B1B6A6C4A43F079
:10230C00040313626A4B1B6A694A43F001031362AC
:10231C000BE0674B1B6A664A23F001031362644BA4
:10232C001B6A634A23F0040313627B68DB68002B8F
:10233C0015D0FFF769FB38610AE0FFF765FB024631
:10234C003B69D31A41F28832934201D90323ABE0A3
:10235C00574B1B6A03F00203002BEED014E0FFF77F
:10236C0053FB38610AE0FFF74FFB02463B69D31A77
:10237C0041F28832934201D9032395E04C4B1B6AFE
:10238C0003F00203002BEED1FB7D012B05D1484B52
:10239C00DB69474A23F08053D3617B68DB69002BF0
:1023AC0000F08180424B5B6803F00C03082B61D07A
:1023BC007B68DB69022B46D13F4B00221A60FFF78A
:1023CC0023FB386108E0FFF71FFB02463B69D31A79
:1023DC00022B01D9032367E0354B1B6803F0007314
:1023EC00002BF0D17B681B6AB3F5803F08D1304BD2
:1023FC005B6823F400327B689B682D4913434B6068
:10240C002B4B5B6823F474127B68196A7B685B6ADC
:10241C000B43274913434B60274B01221A60FFF7EC
:10242C00F3FA386108E0FFF7EFFA02463B69D31A7A
:10243C00022B01D9032337E01D4B1B6803F00073FB
:10244C00002BF0D02FE01C4B00221A60FFF7DCFAB7
:10245C00386108E0FFF7D8FA02463B69D31A022B21
:10246C0001D9032320E0124B1B6803F00073002BEF
:10247C00F0D118E07B68DB69012B01D1012313E05B
:10248C000B4B5B68FB60FB6803F480327B681B6A58
:10249C009A4206D1FB6803F470127B685B6A9A421D
:1024AC0001D0012300E0002318461837BD4680BD3B
:1024BC0000100240007000406000424280B584B0C1
:1024CC0000AF786039607B68002B01D10123D0E02C
:1024DC006A4B1B6803F007033A689A4210D9674BA2
:1024EC001B6823F0070265493B6813430B60634B81
:1024FC001B6803F007033A689A4201D00123B8E045
:10250C007B681B6803F00203002B20D07B681B68E0
:10251C0003F00403002B05D0594B5B68584A43F475
:10252C00E06353607B681B6803F00803002B05D045
:10253C00534B5B68524A43F460535360504B5B6897
:10254C0023F0F0027B689B684D4913434B607B681A
:10255C001B6803F00103002B40D07B685B68012BE8
:10256C0007D1474B1B6803F40033002B15D1012313
:10257C007FE07B685B68022B07D1414B1B6803F043
:10258C000073002B09D1012373E03D4B1B6803F052
:10259C000203002B01D101236BE0394B5B6823F064
:1025AC0003027B685B68364913434B60FFF72CFAD8
:1025BC00F8600AE0FFF728FA0246FB68D31A41F2EA
:1025CC008832934201D9032353E02D4B5B6803F00F
:1025DC000C027B685B689B009A42EBD1274B1B6813
:1025EC0003F007033A689A4210D2244B1B6823F07D
:1025FC00070222493B6813430B60204B1B6803F016
:10260C0007033A689A4201D0012332E07B681B68C9
:10261C0003F00403002B08D0194B5B6823F4E06231
:10262C007B68DB68164913434B607B681B6803F0BF
:10263C000803002B09D0124B5B6823F460527B68B3
:10264C001B69DB000E4913434B6000F021F8024676
:10265C000B4B5B681B0903F00F030A49CB5C22FA96
:10266C0003F3094A1360094B1B681846FFF78AF9F4
:10267C00002318461037BD4680BD00BF0020024025
:10268C0000100240A82F00085C0000206000002011
:10269C0080B487B000AF0023FB600023BB60002335
:1026AC007B6100237B6000233B611E4B5B68FB60FE
:1026BC00FB6803F00C03042B02D0082B03D027E09B
:1026CC00194B3B6127E0FB689B0C03F00F03174A87
:1026DC00D35C7B60FB6803F48033002B10D0114B70
:1026EC005B685B0C03F00103114AD35CBB607B6835
:1026FC000D4A02FB03F2BB68B2FBF3F37B6104E00F
:10270C007B680C4A02FB03F37B617B693B6102E053
:10271C00054B3B6100BF3B6918461C37BD4680BC6E
:10272C00704700BF0010024000127A00B82F00085A
:10273C00C82F000800093D0080B485B000AF786058
:10274C000A4B1B680A4AA2FB03235B0A7A6802FB4A
:10275C0003F3FB6000BFFB685A1EFA60002BF9D133
:10276C0000BF00BF1437BD4680BC70475C00002022
:10277C00D34D621080B582B000AF78607B68002BBF
:10278C0001D1012341E07B6893F83D30DBB2002B93
:10279C0006D17B68002283F83C207868FFF75AF852
:1027AC007B68022283F83D207B681A687B680433BF
:1027BC001946104600F056FA7B68012283F8462031
:1027CC007B68012283F83E207B68012283F83F203E
:1027DC007B68012283F840207B68012283F841202A
:1027EC007B68012283F842207B68012283F8432016
:1027FC007B68012283F844207B68012283F8452002
:10280C007B68012283F83D20002318460837BD461B
:10281C0080BD000080B485B000AF78607B6893F811
:10282C003D30DBB2012B01D0012335E07B68022265
:10283C0083F83D207B681B68DA687B681B6842F074
:10284C000102DA607B681B68164A934209D07B68E8
:10285C001B68B3F1804F04D07B681B68124A93420B
:10286C0011D17B681B689B6803F00703FB60FB6856
:10287C00062B10D07B681B681A687B681B6842F0BB
:10288C0001021A6007E07B681B681A687B681B688A
:10289C0042F001021A60002318461437BD4680BC72
:1028AC00704700BF002C01400004004080B584B08C
:1028BC0000AF78607B681B68DB68FB607B681B681B
:1028CC001B69BB60BB6803F00203002B20D0FB68C4
:1028DC0003F00203002B1BD07B681B686FF0020215
:1028EC001A617B6801221A777B681B689B6903F06D
:1028FC000303002B03D0786800F098F905E07868A2
:10290C0000F08BF9786800F09AF97B6800221A774E
:10291C00BB6803F00403002B20D0FB6803F0040316
:10292C00002B1BD07B681B686FF004021A617B685C
:10293C0002221A777B681B689B6903F44073002B97
:10294C0003D0786800F072F905E0786800F065F95A
:10295C00786800F074F97B6800221A77BB6803F082
:10296C000803002B20D0FB6803F00803002B1BD0BE
:10297C007B681B686FF008021A617B6804221A7767
:10298C007B681B68DB6903F00303002B03D07868BA
:10299C0000F04CF905E0786800F03FF9786800F039
:1029AC004EF97B6800221A77BB6803F01003002BEA
:1029BC0020D0FB6803F01003002B1BD07B681B6836
:1029CC006FF010021A617B6808221A777B681B680B
:1029DC00DB6903F44073002B03D0786800F026F910
:1029EC0005E0786800F019F9786800F028F97B6840
:1029FC0000221A77BB6803F00103002B0CD0FB6894
:102A0C0003F00103002B07D07B681B686FF00102F9
:102A1C001A617868FEF7F2FDBB6803F08003002BA7
:102A2C000CD0FB6803F08003002B07D07B681B687D
:102A3C006FF080021A61786800F06FFABB6803F0DF
:102A4C004003002B0CD0FB6803F04003002B07D095
:102A5C007B681B686FF040021A61786800F0F8F828
:102A6C00BB6803F02003002B0CD0FB6803F02003A1
:102A7C00002B07D07B681B686FF020021A61786806
:102A8C0000F042FA00BF1037BD4680BD80B584B05F
:102A9C0000AF786039600023FB737B6893F83C309F
:102AAC00012B01D10223B4E07B68012283F83C2086
:102ABC007B68022283F83D207B681B689B68BB60A7
:102ACC00BB6823F07703BB60BB6823F47F43BB6018
:102ADC007B681B68BA689A603B681B68B3F5005F3B
:102AEC003ED0B3F5005F00F28780B3F5805F00F055
:102AFC008680B3F5805F7FD8702B1AD0702B7BD873
:102B0C00602B50D0602B77D8502B3CD0502B73D8E7
:102B1C00402B58D0402B6FD8302B64D0302B6BD837
:102B2C00202B60D0202B67D8002B5CD0102B5AD0D8
:102B3C0062E07B6818683B6899683B685A683B6838
:102B4C00DB6800F06AF97B681B689B68BB60BB683C
:102B5C0043F07703BB607B681B68BA689A604FE0F0
:102B6C007B6818683B6899683B685A683B68DB6807
:102B7C0000F053F97B681B689A687B681B6842F409
:102B8C0080429A603CE07B6818683B6859683B68F7
:102B9C00DB681A4600F0CAF87B681B68502118469F
:102BAC0000F021F92CE07B6818683B6859683B6899
:102BBC00DB681A4600F0E8F87B681B686021184651
:102BCC0000F011F91CE07B6818683B6859683B6899
:102BDC00DB681A4600F0AAF87B681B68402118468F
:102BEC0000F001F90CE07B681A683B681B68194619
:102BFC00104600F0F8F803E00123FB7300E000BF7F
:102C0C007B68012283F83D207B68002283F83C20FE
:102C1C00FB7B18461037BD4680BD80B483B000AF37
:102C2C00786000BF0C37BD4680BC704780B483B061
:102C3C0000AF786000BF0C37BD4680BC704780B4D5
:102C4C0083B000AF786000BF0C37BD4680BC7047C6
:102C5C0080B483B000AF786000BF0C37BD4680BC39
:102C6C007047000080B485B000AF786039607B6835
:102C7C001B68FB607B682B4A934207D07B68B3F1DF
:102C8C00804F03D07B68284A934208D1FB6823F01D
:102C9C007003FB603B685B68FA681343FB607B68FE
:102CAC00204A934207D07B68B3F1804F03D07B68F6
:102CBC001D4A934208D1FB6823F44073FB603B68C8
:102CCC00DB68FA681343FB60FB6823F080023B6807
:102CDC005B691343FB607B68FA681A603B689A680F
:102CEC007B68DA623B681A687B689A627B680D4A7B
:102CFC00934203D13B681A697B681A637B68012293
:102D0C005A617B681B6903F00103002B05D07B68BB
:102D1C001B6923F001027B681A6100BF1437BD46A2
:102D2C0080BC7047002C01400004004080B487B088
:102D3C0000AFF860B9607A60FB681B6A7B61FB6866
:102D4C001B6A23F00102FB681A62FB689B693B61FA
:102D5C003B6923F0F0033B617B681B013A69134329
:102D6C003B617B6923F00A037B617A69BB6813437F
:102D7C007B61FB683A699A61FB687A691A6200BFE9
:102D8C001C37BD4680BC704780B487B000AFF8607C
:102D9C00B9607A60FB681B6A7B61FB681B6A23F075
:102DAC001002FB681A62FB689B693B613B6923F468
:102DBC0070433B617B681B033A6913433B617B693E
:102DCC0023F0A0037B61BB681B017A6913437B6111
:102DDC00FB683A699A61FB687A691A6200BF1C3712
:102DEC00BD4680BC704780B485B000AF7860396058
:102DFC007B689B68FB60FB6823F07003FB603A68A0
:102E0C00FB68134343F00703FB607B68FA689A6026
:102E1C0000BF1437BD4680BC704780B487B000AF8C
:102E2C00F860B9607A603B60FB689B687B617B698A
:102E3C0023F47F437B613B681A027B681A43BB68AF
:102E4C0013437A6913437B61FB687A699A6000BF0C
:102E5C001C37BD4680BC704780B485B000AF78602D
:102E6C0039607B6893F83C30012B01D1022341E09F
:102E7C007B68012283F83C207B68022283F83D208A
:102E8C007B681B685B68FB607B681B689B68BB602E
:102E9C00FB6823F07003FB603B681B68FA68134304
:102EAC00FB607B681B68FA685A607B681B68144A75
:102EBC00934209D07B681B68B3F1804F04D07B68C8
:102ECC001B68104A93420CD1BB6823F08003BB6093
:102EDC003B685B68BA681343BB607B681B68BA6865
:102EEC009A607B68012283F83D207B68002283F87E
:102EFC003C20002318461437BD4680BC704700BFE9
:102F0C00002C01400004004080B483B000AF786016
:102F1C0000BF0C37BD4680BC704780B483B000AF97
:102F2C00786000BF0C37BD4680BC704770B500267A
:102F3C000C4D0D4C641BA410A64209D100F022F8D4
:102F4C0000260A4D0A4C641BA410A64205D170BD84
:102F5C0055F8043B98470136EEE755F8043B984783
:102F6C000136F2E7CC2F0008CC2F0008CC2F00083C
:102F7C00D02F000803460244934200D1704703F857
:102F8C00011BF9E7F8B500BFF8BC08BC9E467047BA
:0C2F9C00F8B500BFF8BC08BC9E467047AA
:102FA80000000000000000000102030406070809F1
:102FB80002030405060708090A0B0C0D0E0F101072
:042FC8000102000002
:042FCC0031010008C7
:042FD0000D010008E7
:102FD4000A000000020000000800000001000000D8
:102FE400010000000100000001000000F4010000E5
:102FF40001000000010000000100000001000000C9
:10300400F4010000010000000100000001000000C4
:1030140001000000F40100000100000002000000B3
:1030240003000000040000000A00000000127A00FF
:08303400100000000100000083
:0400000508001919BD
:00000001FF
