:020000040800F2
:1000000000280020A118000831180008371800083F
:100010003D180008431800084918000800000000B7
:100020000000000000000000000000004F18000861
:100030005B1800080000000067180008731800082B
:10004000E9180008E9180008E9180008E91800088C
:10005000E9180008E9180008E9180008E91800087C
:10006000E9180008E9180008E9180008E91800086C
:10007000E9180008E9180008E9180008E91800085C
:10008000E9180008E9180008E9180008E91800084C
:10009000E9180008E9180008E9180008E91800083C
:1000A000E9180008E9180008E9180008E91800082C
:1000B00081180008E918000800000000E91800088D
:1000C000E91800080000000000000000E91800081E
:1000D00000000000E9180008E9180008000000000E
:1000E000E9180008E9180008E918000800000000F5
:1000F0000000000000000000000000000000000000
:0C01000000000000000000005FF808F1A3
:10010C0010B5054C237833B9044B13B10448AFF345
:10011C0000800123237010BD680000200000000047
:10012C00182F000808B5034B1BB103490348AFF364
:10013C00008008BD000000006C000020182F000893
:10014C0080B500AF002204210E4801F0CAFE002247
:10015C0008210C4801F0C5FE00221021094801F0CD
:10016C00C0FE00222021074801F0BBFE00224021E6
:10017C00044801F0B6FE00228021024801F0B1FED5
:10018C0000BF80BD0008014080B500AFA44B1B68C8
:10019C00013B042B00F2588201A252F823F000BF5D
:1001AC00C1010008250200082503000859040008B5
:1001BC00590500089A4B02221A609A4B1B684FF49F
:1001CC007A7202FB03F3184601F03AFA4FF47A7094
:1001DC0001F06AFAFA2001F09BFA934B1B68934AE0
:1001EC001360904B1B68924A136000F051FA03465F
:1001FC00002B00F02B82FFF7A3FF894B0B221A6018
:10020C0042F2107001F01CFA4FF47A7001F04CFAC3
:10021C00FA2001F07DFA19E2844B1B68844A1268BB
:10022C001146184601F06AF8824B1B68012B11D15C
:10023C00814B1B685A1C80490A60184601F030F843
:10024C007D4B1B68012B02DD7B4B00221A60FA20D0
:10025C0001F05EFA794B1B68012B0DD1734B1B68B7
:10026C00013B724A1360724B1B68013B704A13606E
:10027C004FF47A7001F018FA01220421704801F051
:10028C0030FE002208216E4801F02BFE00221021C6
:10029C006B4801F026FE00222021694801F021FE66
:1002AC0000224021664801F01CFE01228021644896
:1002BC0001F017FE634B1B68012B16D1584B032220
:1002CC001A60614B1B684FF47A7202FB03F31846F9
:1002DC0001F0B6F94FF47A7001F0E6F9FA2001F06A
:1002EC0017FA594B1B68524A136000F0D1F90346B8
:1002FC00002B00F0AD81FFF723FF494B0B221A6056
:10030C0042F2107001F09CF94FF4FA7001F0CCF944
:10031C00FA2001F0FDF99BE1444B1B68444A12683A
:10032C001146184600F0EAFF424B1B68012B11D115
:10033C00414B1B685A1C40490A60184600F0B0FF3C
:10034C003D4B1B68012B02DD3B4B00221A60FA204F
:10035C0001F0DEF9394B1B68012B0DD1334B1B68B7
:10036C00013B324A1360324B1B68013B304A13602D
:10037C004FF47A7001F098F901220421304801F011
:10038C00B0FD002208212E4801F0ABFD0022102107
:10039C002B4801F0A6FD00222021294801F0A1FDE7
:1003AC0001224021264801F09CFD00228021244896
:1003BC0001F097FD234B1B68012B1AD1194B1B68BD
:1003CC001A4A1360184B1B68194A1360144B042209
:1003DC001A60144B1B684FF47A7202FB03F3184635
:1003EC0001F02EF94FF47A7001F05EF9FA2001F069
:1003FC008FF900F04DF90346002B00F02B81FFF72D
:10040C009FFE074B0B221A6042F2107001F018F994
:10041C004FF4FA7001F048F9FA2001F079F919E17A
:10042C009C00002008000020000000208400002018
:10043C0088000020B40000208C000020AC000020BC
:10044C0000080140A400002004000020854B1B681C
:10045C00854A12681146184600F050FF834B1B6802
:10046C00012B11D1824B1B685A1C81490A6018461A
:10047C0000F016FF7E4B1B68012B02DD7C4B00222B
:10048C001A60FA2001F044F97A4B1B68012B0DD14C
:10049C00744B1B68013B734A1360734B1B68013B25
:1004AC00714A13604FF47A7001F0FEF800220421B7
:1004BC00714801F016FD002208216F4801F011FD72
:1004CC00012210216C4801F00CFD012220216A4808
:1004DC0001F007FD00224021674801F002FD0022D7
:1004EC008021654801F0FDFC644B1B68012B16D183
:1004FC00634B1B685B4A1360624B05221A60604BAE
:10050C001B684FF47A7202FB03F3184601F098F85B
:10051C004FF47A7001F0C8F8FA2001F0F9F800F005
:10052C00B7F80346002B00F09780FFF709FE554BF8
:10053C000B221A6042F2107001F082F84FF4FA703C
:10054C0001F0B2F8FA2001F0E3F885E0454B1B68A6
:10055C00454A12681146184600F0D0FE434B1B6802
:10056C00012B11D1424B1B685A1C41490A60184699
:10057C0000F096FE3E4B1B68012B02DD3C4B00222B
:10058C001A60FA2001F0C4F83A4B1B68012B0DD10C
:10059C00344B1B68013B334A1360334B1B68013BE4
:1005AC00314A13604FF47A7001F07EF80022042176
:1005BC00314801F096FC012208212F4801F091FCF2
:1005CC00002210212C4801F08CFC012220212A4809
:1005DC0001F087FC00224021274801F082FC002218
:1005EC008021254801F07DFC244B1B68012B15D183
:1005FC00254B1B681B4A1360244B1B681A4A13605B
:10060C00204B02221A604FF4FA6001F019F84FF4F3
:10061C007A7001F049F8FA2001F07AF800F038F815
:10062C000346002B1AD0FFF78BFD164B0B221A60DA
:10063C0042F2107001F004F84FF4FA7001F034F843
:10064C00FA2001F065F809E000BF08E000BF06E001
:10065C0000BF04E000BF02E000BF00E000BF00BF2D
:10066C0080BD00BF8400002088000020B400002062
:10067C008C000020AC00002000080140A4000020E9
:10068C00040000209C000020000000200800002036
:10069C0080B400AF064B1B68012B04D1044B002225
:1006AC001A60012300E000231846BD4680BC704749
:1006BC009000002080B400AF034B01221A6000BFF1
:1006CC00BD4680BC704700BF9000002080B500AFD5
:1006DC00244B1B68244A1360244B1B68214A13606B
:1006EC004FF40051224801F0E5FB03461A461F4B1C
:1006FC001A601D4B1A681B4B1B689A4230D1194B60
:10070C001A681A4B1B689A422AD1184B1A68194B53
:10071C001B689A4210D0154B1B68164A1360154B78
:10072C001B68002B1CD1144B96221A60FFF7C2FFDA
:10073C00124B01221A6013E00F4B1B68013B0E4A4F
:10074C0013600D4B1B68002B0AD10B4B4FF4FA7244
:10075C001A60084B1B68002B02D1084B01221A604F
:10076C0000BF80BD100000200C00002014000020F1
:10077C0000080140180000201C0000209000002000
:10078C0080B400AF064B1B68012B04D1044B002234
:10079C001A60022300E000231846BD4680BC704757
:1007AC009400002080B400AF034B01221A6000BFFC
:1007BC00BD4680BC704700BF9400002080B500AFE0
:1007CC00244B1B68244A1360244B1B68214A13607A
:1007DC004FF48041224801F06DFB03461A461F4B33
:1007EC001A601C4B1A681C4B1B689A4230D1194B6F
:1007FC001A681A4B1B689A422AD1184B1A68194B63
:10080C001B689A4210D0154B1B68164A1360154B87
:10081C001B68002B1CD1144B96221A60FFF7C2FFE9
:10082C00124B01221A6013E00F4B1B68013B0E4A5E
:10083C0013600D4B1B68002B0AD10B4B4FF4FA7253
:10084C001A60084B1B68002B02D1084B01221A605E
:10085C0000BF80BD240000202000002028000020C4
:10086C00000801402C0000203000002094000020E3
:10087C0080B400AF034B01221A6000BFBD4680BCA0
:10088C00704700BF9800002080B500AF244B1B6858
:10089C00244A1360244B1B68214A13604FF4004117
:1008AC00224801F007FB03461A461F4B1A601C4BEB
:1008BC001A681C4B1B689A4230D1194B1A681A4B98
:1008CC001B689A422AD1184B1A68194B1B689A421A
:1008DC0010D0154B1B68164A1360154B1B68002B68
:1008EC001CD1144B96221A60FFF7C2FF124B012247
:1008FC001A6013E00F4B1B68013B0E4A13600D4B43
:10090C001B68002B0AD10B4B4FF4FA721A60084B80
:10091C001B68002B02D1084B01221A6000BF80BD5E
:10092C0038000020340000203C000020000801406A
:10093C0040000020440000209800002080B582B0C8
:10094C0000AF78607B68092B00F2808101A252F81D
:10095C0023F000BF89090008D1090008190A000812
:10096C00610A0008A90A0008F10A0008390B0008FE
:10097C00810B0008C90B0008110C00080022012192
:10098C00B44801F0AEFA00220221B24801F0A9FAF3
:10099C0000220421AF4801F0A4FA00220821AD483E
:1009AC0001F09FFA00221021AA4801F09AFA0022C5
:1009BC002021A84801F095FA01224021A54801F018
:1009CC0090FA43E101220121A24801F08AFA0022A7
:1009DC000221A04801F085FA002204219D4801F073
:1009EC0080FA012208219B4801F07BFA0122102198
:1009FC00984801F076FA01222021964801F071FA0C
:100A0C0001224021934801F06CFA1FE100220121E0
:100A1C00904801F066FA002202218E4801F061FA3A
:100A2C00012204218B4801F05CFA0022082189483C
:100A3C0001F057FA00221021864801F052FA0122E7
:100A4C002021844801F04DFA00224021814801F018
:100A5C0048FAFBE0002201217E4801F042FA002214
:100A6C0002217C4801F03DFA00220421794801F072
:100A7C0038FA00220821774801F033FA01221021BC
:100A8C00744801F02EFA01222021724801F029FA53
:100A9C00002240216F4801F024FAD7E00122012105
:100AAC006C4801F01EFA002202216A4801F019FA82
:100ABC0000220421674801F014FA0122082165483C
:100ACC0001F00FFA01221021624801F00AFA00220B
:100ADC002021604801F005FA002240215D4801F018
:100AEC0000FAB3E0002201215A4801F0FAF9012280
:100AFC000221584801F0F5F900220421554801F073
:100B0C00F0F900220821534801F0EBF901221021E1
:100B1C00504801F0E6F9002220214E4801F0E1F99D
:100B2C00002240214B4801F0DCF98FE0002201212A
:100B3C00484801F0D6F901220221464801F0D1F9CA
:100B4C0000220421434801F0CCF90022082141483D
:100B5C0001F0C7F9002210213E4801F0C2F9002231
:100B6C0020213C4801F0BDF900224021394801F018
:100B7C00B8F96BE000220121364801F0B2F90022ED
:100B8C000221344801F0ADF900220421314801F072
:100B9C00A8F9012208212F4801F0A3F90122102104
:100BAC002C4801F09EF9012220212A4801F099F9E4
:100BBC0001224021274801F094F947E0002201214D
:100BCC00244801F08EF900220221224801F089F913
:100BDC00002204211F4801F084F9002208211D483D
:100BEC0001F07FF9002210211A4801F07AF9002255
:100BFC002021184801F075F900224021154801F018
:100C0C0070F923E000220121124801F06AF9002258
:100C1C000221104801F065F9002204210D4801F071
:100C2C0060F9002208210B4801F05BF90122102128
:100C3C00084801F056F900222021064801F051F92C
:100C4C0000224021034801F04CF900BF00BF0837D7
:100C5C00BD4680BD000C014080B582B000AF78600D
:100C6C007B68092B00F2BC8101A252F823F000BF73
:100C7C00A50C0008F90C00084D0D0008A10D00088A
:100C8C00F50D0008490E00089D0E0008F10E000835
:100C9C00450F0008990F000800228021D24801F06E
:100CAC0020F900224FF48071CF4801F01AF900228C
:100CBC004FF40071CC4801F014F900224FF480611C
:100CCC00C94801F00EF900224FF40061C64801F04A
:100CDC0008F900224FF48051C34801F002F90122B7
:100CEC004FF40051C04801F0FCF879E10122802159
:100CFC00BD4801F0F6F800224FF48071BA4801F0BB
:100D0C00F0F800224FF40071B74801F0EAF8012224
:100D1C004FF48061B44801F0E4F801224FF4006113
:100D2C00B14801F0DEF801224FF48051AE4801F0D9
:100D3C00D8F801224FF40051AB4801F0D2F84FE142
:100D4C0000228021A84801F0CCF800224FF48071D9
:100D5C00A54801F0C6F801224FF40071A24801F039
:100D6C00C0F800224FF480619F4801F0BAF80022CD
:100D7C004FF400619C4801F0B4F801224FF480510B
:100D8C00994801F0AEF800224FF40051964801F05A
:100D9C00A8F825E100228021934801F0A2F8002256
:100DAC004FF48071904801F09CF800224FF40071D0
:100DBC008D4801F096F800224FF480618A4801F0CA
:100DCC0090F801224FF40061874801F08AF8012263
:100DDC004FF48051844801F084F800224FF4005104
:100DEC00814801F07EF8FBE0012280217E4801F071
:100DFC0078F800224FF480717B4801F072F80022E1
:100E0C004FF40071784801F06CF801224FF48061C6
:100E1C00754801F066F801224FF40061724801F048
:100E2C0060F800224FF480516F4801F05AF800220C
:100E3C004FF400516C4801F054F8D1E000228021AD
:100E4C00694801F04EF801224FF48071664801F0B8
:100E5C0048F800224FF40071634801F042F8002278
:100E6C004FF48061604801F03CF801224FF40061BE
:100E7C005D4801F036F800224FF480515A4801F0D9
:100E8C0030F800224FF40051574801F02AF8A7E03F
:100E9C0000228021544801F024F801224FF4807183
:100EAC00514801F01EF800224FF400714E4801F039
:100EBC0018F800224FF480614B4801F012F8002220
:100ECC004FF40061484801F00CF800224FF48051B7
:100EDC00454801F006F800224FF40051424801F059
:100EEC0000F87DE0002280213F4800F0FAFF00224C
:100EFC004FF480713C4800F0F4FF00224FF4007175
:100F0C00394800F0EEFF01224FF48061364800F0C2
:100F1C00E8FF01224FF40061334800F0E2FF0122A8
:100F2C004FF48051304800F0DCFF01224FF40051A7
:100F3C002D4800F0D6FF53E0002280212A4800F013
:100F4C00D0FF00224FF48071274800F0CAFF002226
:100F5C004FF40071244800F0C4FF00224FF480616C
:100F6C00214800F0BEFF00224FF400611E4800F043
:100F7C00B8FF00224FF480511B4800F0B2FF002252
:100F8C004FF40051184800F0ACFF29E000228021FA
:100F9C00154800F0A6FF00224FF48071124800F0B3
:100FAC00A0FF00224FF400710F4800F09AFF0022BE
:100FBC004FF480610C4800F094FF01224FF4006163
:100FCC00094800F08EFF00224FF48051064800F0D3
:100FDC0088FF00224FF40051034800F082FF00BF4D
:100FEC0000BF0837BD4680BD000C014080B500AF86
:100FFC00A24B1B680D2B00F0D3800D2B00F3358119
:10100C000B2B02D00C2B66D02FE19D4B1B68194685
:10101C00012000F073F99B4B1B68012B11D19A4BEB
:10102C001B685A1C98490A60184600F039F9964B0F
:10103C001B68012B02DD944B00221A60FA2000F091
:10104C0067FB924B1B68012B0BD10421904800F0DD
:10105C0060FF20218E4800F05CFF4FF4FA7000F026
:10106C0023FB8C4B1B68012B06D1844B02221A608C
:10107C0041F2883000F0E4FAFFF70AFB0346012B3B
:10108C000FD1FFF75DF87D4B0C221A6042F2107005
:10109C0000F0D6FA4FF4FA7000F006FBFA2000F0DC
:1010AC0037FBFFF76DFB0346002B00F0E080744B21
:1010BC001B680133724A1360714B1B68632B02DD92
:1010CC006F4B01221A6042F2107000F0B9FAFA204C
:1010DC0000F01EFBCBE0704B1B681946022000F0A1
:1010EC000DF9684B1B68012B11D1674B1B685A1CFF
:1010FC0065490A60184600F0D3F8634B1B68012B56
:10110C0002DD614B00221A60FA2000F001FB5F4BFC
:10111C001B68012B0BD108215D4800F0FAFE402121
:10112C005B4800F0F6FE4FF4FA7000F0BDFA594B34
:10113C001B68012B06D1514B02221A6041F28830F8
:10114C0000F07EFAFFF7A4FA0346012B0FD1FEF74D
:10115C00F7FF4A4B0D221A6042F2107000F070FA41
:10116C004FF4FA7000F0A0FAFA2000F0D1FAFFF771
:10117C0007FB0346002B7CD0474B1B680133464AC8
:10118C001360454B1B68632B02DD3D4B01221A603B
:10119C0042F2107000F054FAFA2000F0B9FA68E04C
:1011AC003E4B1B681946032000F0A8F8354B1B6812
:1011BC00012B11D1344B1B685A1C33490A60184659
:1011CC0000F06EF8304B1B68012B02DD2E4B002219
:1011DC001A60FA2000F09CFA2C4B1B68012B0BD1E7
:1011EC0010212B4800F095FE8021294800F091FE3B
:1011FC004FF4FA7000F058FA264B1B68012B06D1FD
:10120C001E4B02221A6041F2883000F019FAFFF7E7
:10121C003FFA0346012B0FD1FEF792FF174B0B221F
:10122C001A6042F2107000F00BFA4FF4FA7000F0F2
:10123C003BFAFA2000F06CFAFFF7A2FA0346002BF7
:10124C0019D0164B1B680133144A1360134B1B68DF
:10125C00632B02DD114B01221A6042F2107000F078
:10126C00EFF9FA2000F054FA05E000BF04E000BFEB
:10127C0002E000BF00E000BF00BF80BD9C0000206A
:10128C0000000020B4000020B8000020AC000020BA
:10129C0000080140A40000200400002008000020E9
:1012AC0080B582B000AF78607B68002B03D07B6880
:1012BC00012B0ED01BE0104B1B681846FFF73EFBB2
:1012CC000D4B9B681846FFF7C7FC786800F074F963
:1012DC000DE0094B5B681846FFF730FB064BDB68EB
:1012EC001846FFF7B9FC786800F066F900BF00BF3C
:1012FC000837BD4680BD00BF4800002080B483B0D5
:10130C0000AF786039607B68184A82FB0312921038
:10131C00DB17D31A164A13607968144B83FB01232D
:10132C009A10CB17D21A13469B0013445B00CA1AAF
:10133C000F4B5A603B680D4A82FB03129210DB176D
:10134C00D31A0B4A93603968084B83FB01239A101C
:10135C00CB17D21A13469B0013445B00CA1A044BDA
:10136C00DA6000BF0C37BD4680BC704767666666A6
:10137C004800002080B500AF00F0B2FA00F016F87B
:10138C0000F09CF800F09AF800F04CF8054801F0D9
:10139C0005FA054B01221A60FEF7F6FEFFF726FE52
:1013AC00FAE700BFBC0000209C00002080B590B084
:1013BC0000AF07F1180328220021184601F09EFD0A
:1013CC003B1D00221A605A609A60DA601A6102238F
:1013DC00BB610123BB621023FB6200237B6307F11B
:1013EC001803184600F0AEFD0346002B01D000F0A8
:1013FC00DDF80F237B600023BB600023FB60002320
:10140C003B6100237B613B1D0021184601F01AF85B
:10141C000346002B01D000F0C9F800BF4037BD4691
:10142C0080BD000080B586B000AF07F10803002234
:10143C001A605A609A60DA603B4600221A605A6061
:10144C001D4B4FF080421A601B4B41F63F725A60A5
:10145C00194B00229A60184B0922DA60164B0022B5
:10146C001A61154B00229A61134801F047F90346A3
:10147C00002B01D000F09AF84FF48053BB6007F1B9
:10148C00080319460C4801F0C5FA0346002B01D09D
:10149C0000F08CF800233B6000237B603B46194630
:1014AC00054801F09DFC0346002B01D000F07EF8AE
:1014BC0000BF1837BD4680BDBC00002080B586B08B
:1014CC0000AF07F1080300221A605A609A60DA60D4
:1014DC00294B9B69284A43F004039361264B9B6973
:1014EC0003F004037B607B68234B9B69224A43F027
:1014FC0008039361204B9B6903F008033B603B6836
:10150C00002240F6FC711D4800F0EBFC002243F673
:10151C00FF711B4800F0E5FC40F6FC73BB60012337
:10152C00FB6000233B6102237B6107F10803194632
:10153C00124800F045FB43F6FF73BB600123FB60D0
:10154C0000233B6102237B6107F1080319460C4819
:10155C0000F036FB4FF46043BB600023FB600123BB
:10156C003B6107F108031946044800F029FB00BF52
:10157C001837BD4680BD00BF001002400008014076
:10158C00000C014080B582B000AF786000F072F8BA
:10159C0000F0A4F800F0D6F8FFF798F8FFF70EF972
:1015AC00FFF772F900BF0837BD4680BD80B400AFAD
:1015BC0072B600BFFEE7000080B582B000AF786065
:1015CC007B68002B03D07B68012B19D031E0002203
:1015DC004FF48071194800F084FC01224FF4007123
:1015EC00164800F07EFC00224FF48061134800F096
:1015FC0078FC01224FF40061104800F072FC18E0F6
:10160C0001224FF480710D4800F06BFC00224FF466
:10161C0000710A4800F065FC01224FF48061074814
:10162C0000F05FFC00224FF40061044800F059FC0C
:10163C0000BF00BF0837BD4680BD00BF0008014099
:10164C0080B483B000AF7860074B1B687A6892FB5C
:10165C00F3F3064A1360064B00221A6000BF0C37E6
:10166C00BD4680BC704700BF58000020A000002081
:10167C00A400002080B400AF094B1B68002B0BDDCD
:10168C00074B1B68013B064A1360054B1B68002B7C
:10169C0002D1044B01221A6000BFBD4680BC7047CA
:1016AC00A0000020A400002080B483B000AF7860BC
:1016BC00074B1B687A6892FBF3F3064A1360064BE0
:1016CC0000221A6000BF0C37BD4680BC704700BFBB
:1016DC0058000020A8000020AC00002080B400AF0F
:1016EC00094B1B68002B0BDD074B1B68013B064AA3
:1016FC001360054B1B68002B02D1044B01221A60AE
:10170C0000BFBD4680BC7047A8000020AC00002084
:10171C0080B483B000AF7860074B1B687A6892FB8B
:10172C00F3F3064A1360064B00221A6000BF0C3715
:10173C00BD4680BC704700BF58000020B0000020A0
:10174C00B400002080B400AF094B1B68002B0BDDEC
:10175C00074B1B68013B064A1360054B1B68002BAB
:10176C0002D1044B01221A6000BFBD4680BC7047F9
:10177C00B0000020B400002080B485B000AF154B41
:10178C009B69144A43F001039361124B9B6903F06C
:10179C000103BB60BB680F4BDB690E4A43F08053FF
:1017AC00D3610C4BDB6903F080537B607B680A4B85
:1017BC005B68FB60FB6823F0E063FB60FB6843F055
:1017CC008063FB60044AFB68536000BF1437BD465E
:1017DC0080BC7047001002400000014080B584B00E
:1017EC0000AF78607B681B68B3F1804F13D10C4B52
:1017FC00DB690B4A43F00103D361094BDB6903F04E
:10180C000103FB60FB68002200211C2000F0A1F901
:10181C001C2000F0BAF900BF1037BD4680BD00BFD8
:10182C000010024080B400AFFEE780B400AFFEE7CA
:10183C0080B400AFFEE780B400AFFEE780B400AF29
:10184C00FEE780B400AF00BFBD4680BC704780B4DB
:10185C0000AF00BFBD4680BC704780B400AF00BF76
:10186C00BD4680BC704780B500AF00F07FF800BF6C
:10187C0080BD000080B500AF024800F0DBFF00BF68
:10188C0080BD00BFBC00002080B400AF00BFBD46CF
:10189C0080BC7047FFF7F8FF0B480C490C4A00233B
:1018AC0002E0D458C4500433C4188C42F9D3094A0A
:1018BC00094C002301E013600432A242FBD301F077
:1018CC00F9FAFFF757FD7047000000206800002070
:1018DC005C2F00086800002008010020FEE70000D3
:1018EC0080B500AF084B1B68074A43F01003136028
:1018FC00032000F023F90F2000F008F8FFF73CFF5D
:10190C000023184680BD00BF0020024080B582B085
:10191C0000AF7860124B1A68124B1B7819464FF4C3
:10192C007A73B3FBF1F3B2FBF3F3184600F03BF917
:10193C000346002B01D001230EE07B680F2B0AD845
:10194C00002279684FF0FF3000F003F9064A7B68FB
:10195C001360002300E0012318460837BD4680BD04
:10196C005C000020640000206000002080B400AF08
:10197C00054B1B781A46054B1B681344034A13602E
:10198C0000BFBD4680BC70476400002004010020ED
:10199C0080B400AF024B1B681846BD4680BC704734
:1019AC000401002080B485B000AF78607B6803F040
:1019BC000703FB600C4BDB68BB60BA684FF6FF0398
:1019CC001340BB60FB681A02BB68134343F0BF6350
:1019DC0043F40033BB60044ABB68D36000BF1437C8
:1019EC00BD4680BC704700BF00ED00E080B400AF86
:1019FC00044BDB681B0A03F007031846BD4680BC8A
:101A0C00704700BF00ED00E080B483B000AF034628
:101A1C00FB7197F90730002B0BDBFB7903F01F02EE
:101A2C00064997F907305B09012000FA02F241F8E8
:101A3C00232000BF0C37BD4680BC704700E100E09E
:101A4C0080B483B000AF03463960FB7197F907305F
:101A5C00002B0ADB3B68DAB20C4997F9073012010C
:101A6C00D2B20B4483F800230AE03B68DAB208498F
:101A7C00FB7903F00F03043B1201D2B20B441A762C
:101A8C0000BF0C37BD4680BC704700BF00E100E0D2
:101A9C0000ED00E080B489B000AFF860B9607A6006
:101AAC00FB6803F00703FB61FB69C3F10703042B1D
:101ABC0028BF0423BB61FB690433062B02D9FB69E5
:101ACC00033B00E000237B614FF0FF32BB6902FA5D
:101ADC0003F3DA43BB681A407B699A404FF0FF313D
:101AEC007B6901FA03F3D9437B680B401343184617
:101AFC002437BD4680BC704780B582B000AF78609B
:101B0C007B68013BB3F1807F01D301230FE00A4ACC
:101B1C007B68013B53600F214FF0FF30FFF790FFC4
:101B2C00054B00229A60044B07221A6000231846CA
:101B3C000837BD4680BD00BF10E000E080B582B024
:101B4C0000AF78607868FFF72DFF00BF0837BD46FF
:101B5C0080BD80B586B000AF0346B9607A60FB7378
:101B6C0000237B61FFF742FF78617A68B968786976
:101B7C00FFF790FF024697F90F3011461846FFF712
:101B8C005FFF00BF1837BD4680BD80B582B000AF87
:101B9C000346FB7197F907301846FFF735FF00BF76
:101BAC000837BD4680BD80B582B000AF78607868DC
:101BBC00FFF7A2FF034618460837BD4680BD00005C
:101BCC0080B48BB000AF7860396000237B62002357
:101BDC003B6248E101227B6A02FA03F3FB613B683A
:101BEC001B68FA691340BB61BA69FB699A4240F001
:101BFC0037813B685B68A34A93425ED0A14A93420B
:101C0C0075D8A14A934258D09F4A93426FD89F4AA5
:101C1C00934252D09D4A934269D89D4A93424CD0EC
:101C2C009B4A934263D89B4A934246D0994A93422B
:101C3C005DD8122B2AD8122B59D801A252F823F0B6
:101C4C00C71C0008A11C0008B31C0008F51C0008E8
:101C5C00FB1C0008FB1C0008FB1C0008FB1C0008FC
:101C6C00FB1C0008FB1C0008FB1C0008FB1C0008EC
:101C7C00FB1C0008FB1C0008FB1C0008FB1C0008DC
:101C8C00FB1C0008A91C0008BD1C0008824A9342DA
:101C9C0013D02CE03B68DB683B6229E03B68DB68D7
:101CAC0004333B6224E03B68DB6808333B621FE093
:101CBC003B68DB680C333B621AE03B689B68002B8B
:101CCC0002D104233B6213E03B689B68012B05D1D6
:101CDC0008233B627B68FA691A6109E008233B62BE
:101CEC007B68FA695A6103E000233B6200E000BFA5
:101CFC00BB69FF2B01D87B6801E07B6804337B61F7
:101D0C00BB69FF2B02D87B6A9B0002E07B6A083B15
:101D1C009B003B617B691A680F213B6901FA03F355
:101D2C00DB431A40396A3B6901FA03F31A437B69B6
:101D3C001A603B685B6803F08053002B00F09080C6
:101D4C00564B9B69554A43F001039361534B9B6976
:101D5C0003F00103BB60BB68514A7B6A9B080233EA
:101D6C0052F82330FB607B6A03F003039B000F22C5
:101D7C0002FA03F3DB43FA681340FB607B68494AC1
:101D8C0093420DD07B68484A934207D07B68474A00
:101D9C00934201D1022304E0032302E0012300E07B
:101DAC0000237A6A02F0030292009340FA6813430C
:101DBC00FB603B497B6A9B080233FA6841F823209D
:101DCC003B685B6803F48013002B06D0384B9A6891
:101DDC003749BB6913438B6006E0354B9A68BB6986
:101DEC00DB43334913408B603B685B6803F400139F
:101DFC00002B06D02E4BDA682D49BB691343CB6000
:101E0C0006E02B4BDA68BB69DB4329491340CB60F6
:101E1C003B685B6803F40033002B06D0244B5A68F4
:101E2C002349BB6913434B6006E0214B5A68BB69DD
:101E3C00DB431F4913404B603B685B6803F4803302
:101E4C00002B06D01A4B1A681949BB6913430B6057
:101E5C0006E0174B1A68BB69DB43154913400B604E
:101E6C007B6A01337B623B681A687B6A22FA03F354
:101E7C00002B7FF4AFAE00BF00BF2C37BD4680BC3B
:101E8C00704700BF0000321000003110000022101B
:101E9C000000211000001210000011100010024070
:101EAC000000014000080140000C014000100140FE
:101EBC000004014080B485B000AF78600B467B8095
:101ECC007B689A687B881340002B02D00123FB733C
:101EDC0001E00023FB73FB7B18461437BD4680BC26
:101EEC00704780B483B000AF78600B467B8013469C
:101EFC007B707B78002B03D07A887B681A6103E0B7
:101F0C007B881A047B681A6100BF0C37BD4680BC05
:101F1C00704780B485B000AF78600B467B807B68DF
:101F2C00DB68FB607A88FB6813401A04FB68D943B2
:101F3C007B880B401A437B681A6100BF1437BD467F
:101F4C0080BC704780B586B000AF78607B68002B92
:101F5C0001D101236CE27B681B6803F00103002BA9
:101F6C0000F08780924B5B6803F00C03042B0CD0C1
:101F7C008F4B5B6803F00C03082B12D18C4B5B6806
:101F8C0003F48033B3F5803F0BD1894B1B6803F40A
:101F9C000033002B6CD07B685B68002B68D101236D
:101FAC0046E27B685B68B3F5803F06D1804B1B68CB
:101FBC007F4A43F4803313602EE07B685B68002B10
:101FCC000CD17B4B1B687A4A23F480331360784B1B
:101FDC001B68774A23F4802313601DE07B685B68E1
:101FEC00B3F5A02F0CD1724B1B68714A43F48023BC
:101FFC0013606F4B1B686E4A43F4803313600BE025
:10200C006B4B1B686A4A23F480331360684B1B6864
:10201C00674A23F4802313607B685B68002B13D022
:10202C00FFF7B6FC386108E0FFF7B2FC02463B69EB
:10203C00D31A642B01D90323FAE15D4B1B6803F41B
:10204C000033002BF0D014E0FFF7A2FC386108E05D
:10205C00FFF79EFC02463B69D31A642B01D903237C
:10206C00E6E1534B1B6803F40033002BF0D100E086
:10207C0000BF7B681B6803F00203002B63D04C4B42
:10208C005B6803F00C03002B0BD0494B5B6803F02F
:10209C000C03082B1CD1464B5B6803F48033002BDC
:1020AC0016D1434B1B6803F00203002B05D07B6851
:1020BC001B69012B01D00123BAE13D4B1B6823F0B6
:1020CC00F8027B685B69DB00394913430B603AE02B
:1020DC007B681B69002B20D0364B01221A60FFF75E
:1020EC0057FC386108E0FFF753FC02463B69D31AF2
:1020FC00022B01D903239BE12D4B1B6803F0020338
:10210C00002BF0D02A4B1B6823F0F8027B685B692C
:10211C00DB00274913430B6015E0264B00221A60A5
:10212C00FFF736FC386108E0FFF732FC02463B69EA
:10213C00D31A022B01D903237AE11D4B1B6803F040
:10214C000203002BF0D17B681B6803F00803002B03
:10215C003AD07B689B69002B19D0174B01221A606F
:10216C00FFF716FC386108E0FFF712FC02463B69EA
:10217C00D31A022B01D903235AE10D4B5B6A03F0EE
:10218C000203002BF0D0012000F09AFA1CE00A4B5D
:10219C0000221A60FFF7FCFB38610FE0FFF7F8FB39
:1021AC0002463B69D31A022B08D9032340E100BF36
:1021BC000010024000004242800442429E4B5B6A87
:1021CC0003F00203002BE9D17B681B6803F00403C6
:1021DC00002B00F0A6800023FB75974BDB6903F006
:1021EC008053002B0DD1944BDB69934A43F0805301
:1021FC00D361914BDB6903F08053BB60BB68012357
:10220C00FB758E4B1B6803F48073002B18D18B4B22
:10221C001B688A4A43F480731360FFF7B9FB38617B
:10222C0008E0FFF7B5FB02463B69D31A642B01D9D2
:10223C000323FDE0814B1B6803F48073002BF0D06B
:10224C007B68DB68012B06D17B4B1B6A7A4A43F017
:10225C00010313622DE07B68DB68002B0CD1764BFD
:10226C001B6A754A23F001031362734B1B6A724A93
:10227C0023F0040313621CE07B68DB68052B0CD194
:10228C006D4B1B6A6C4A43F0040313626A4B1B6A66
:10229C00694A43F0010313620BE0674B1B6A664A01
:1022AC0023F001031362644B1B6A634A23F004039B
:1022BC0013627B68DB68002B15D0FFF769FB386174
:1022CC000AE0FFF765FB02463B69D31A41F28832FC
:1022DC00934201D90323ABE0574B1B6A03F0020373
:1022EC00002BEED014E0FFF753FB38610AE0FFF748
:1022FC004FFB02463B69D31A41F28832934201D913
:10230C00032395E04C4B1B6A03F00203002BEED128
:10231C00FB7D012B05D1484BDB69474A23F08053E9
:10232C00D3617B68DB69002B00F08180424B5B68DA
:10233C0003F00C03082B61D07B68DB69022B46D1C0
:10234C003F4B00221A60FFF723FB386108E0FFF7D0
:10235C001FFB02463B69D31A022B01D9032367E00A
:10236C00354B1B6803F00073002BF0D17B681B6AA4
:10237C00B3F5803F08D1304B5B6823F400327B68A7
:10238C009B682D4913434B602B4B5B6823F47412F1
:10239C007B68196A7B685B6A0B43274913434B6064
:1023AC00274B01221A60FFF7F3FA386108E0FFF7B8
:1023BC00EFFA02463B69D31A022B01D9032337E00B
:1023CC001D4B1B6803F00073002BF0D02FE01C4B4F
:1023DC0000221A60FFF7DCFA386108E0FFF7D8FA40
:1023EC0002463B69D31A022B01D9032320E0124B7E
:1023FC001B6803F00073002BF0D118E07B68DB69DD
:10240C00012B01D1012313E00B4B5B68FB60FB68D4
:10241C0003F480327B681B6A9A4206D1FB6803F492
:10242C0070127B685B6A9A4201D0012300E00023A2
:10243C0018461837BD4680BD0010024000700040A1
:10244C006000424280B584B000AF786039607B6830
:10245C00002B01D10123D0E06A4B1B6803F007036A
:10246C003A689A4210D9674B1B6823F007026549FA
:10247C003B6813430B60634B1B6803F007033A681C
:10248C009A4201D00123B8E07B681B6803F0020379
:10249C00002B20D07B681B6803F00403002B05D0B5
:1024AC00594B5B68584A43F4E06353607B681B6884
:1024BC0003F00803002B05D0534B5B68524A43F4DE
:1024CC0060535360504B5B6823F0F0027B689B6851
:1024DC004D4913434B607B681B6803F00103002BD1
:1024EC0040D07B685B68012B07D1474B1B6803F41A
:1024FC000033002B15D101237FE07B685B68022B36
:10250C0007D1414B1B6803F00073002B09D1012349
:10251C0073E03D4B1B6803F00203002B01D1012338
:10252C006BE0394B5B6823F003027B685B683649D0
:10253C0013434B60FFF72CFAF8600AE0FFF728FA18
:10254C000246FB68D31A41F28832934201D9032325
:10255C0053E02D4B5B6803F00C027B685B689B00BF
:10256C009A42EBD1274B1B6803F007033A689A4257
:10257C0010D2244B1B6823F0070222493B681343FB
:10258C000B60204B1B6803F007033A689A4201D09A
:10259C00012332E07B681B6803F00403002B08D096
:1025AC00194B5B6823F4E0627B68DB6816491343C4
:1025BC004B607B681B6803F00803002B09D0124B9F
:1025CC005B6823F460527B681B69DB000E49134384
:1025DC004B6000F021F802460B4B5B681B0903F0C3
:1025EC000F030A49CB5C22FA03F3094A1360094B27
:1025FC001B681846FFF78AF9002318461037BD46AA
:10260C0080BD00BF0020024000100240302F0008A7
:10261C005C0000206000002080B487B000AF002375
:10262C00FB600023BB6000237B6100237B600023E5
:10263C003B611E4B5B68FB60FB6803F00C03042BD7
:10264C0002D0082B03D027E0194B3B6127E0FB6835
:10265C009B0C03F00F03174AD35C7B60FB6803F4FD
:10266C008033002B10D0114B5B685B0C03F0010323
:10267C00114AD35CBB607B680D4A02FB03F2BB685A
:10268C00B2FBF3F37B6104E07B680C4A02FB03F3BF
:10269C007B617B693B6102E0054B3B6100BF3B69A1
:1026AC0018461C37BD4680BC704700BF0010024066
:1026BC0000127A00402F0008502F000800093D003E
:1026CC0080B485B000AF78600A4B1B680A4AA2FB45
:1026DC0003235B0A7A6802FB03F3FB6000BFFB6811
:1026EC005A1EFA60002BF9D100BF00BF1437BD464B
:1026FC0080BC70475C000020D34D621080B582B066
:10270C0000AF78607B68002B01D1012341E07B682E
:10271C0093F83D30DBB2002B06D17B68002283F8A6
:10272C003C207868FFF75AF87B68022283F83D203A
:10273C007B681A687B6804331946104600F056FA19
:10274C007B68012283F846207B68012283F83E20B7
:10275C007B68012283F83F207B68012283F84020AC
:10276C007B68012283F841207B68012283F8422098
:10277C007B68012283F843207B68012283F8442084
:10278C007B68012283F845207B68012283F83D2079
:10279C00002318460837BD4680BD000080B485B0C4
:1027AC0000AF78607B6893F83D30DBB2012B01D031
:1027BC00012335E07B68022283F83D207B681B688F
:1027CC00DA687B681B6842F00102DA607B681B6880
:1027DC00164A934209D07B681B68B3F1804F04D032
:1027EC007B681B68124A934211D17B681B689B68FB
:1027FC0003F00703FB60FB68062B10D07B681B689B
:10280C001A687B681B6842F001021A6007E07B685B
:10281C001B681A687B681B6842F001021A6000236F
:10282C0018461437BD4680BC704700BF002C0140D1
:10283C000004004080B584B000AF78607B681B68F2
:10284C00DB68FB607B681B681B69BB60BB6803F0C3
:10285C000203002B20D0FB6803F00203002B1BD0DB
:10286C007B681B686FF002021A617B6801221A7781
:10287C007B681B689B6903F00303002B03D078680B
:10288C0000F098F905E0786800F08BF9786800F0B2
:10289C009AF97B6800221A77BB6803F00403002BBB
:1028AC0020D0FB6803F00403002B1BD07B681B6853
:1028BC006FF004021A617B6802221A777B681B682E
:1028CC009B6903F44073002B03D0786800F072F915
:1028DC0005E0786800F065F9786800F074F97B68B9
:1028EC0000221A77BB6803F00803002B20D0FB688A
:1028FC0003F00803002B1BD07B681B686FF00802E9
:10290C001A617B6804221A777B681B68DB6903F009
:10291C000303002B03D0786800F04CF905E07868CD
:10292C0000F03FF9786800F04EF97B6800221A77C6
:10293C00BB6803F01003002B20D0FB6803F01003DE
:10294C00002B1BD07B681B686FF010021A617B6830
:10295C0008221A777B681B68DB6903F44073002B31
:10296C0003D0786800F026F905E0786800F019F9D2
:10297C00786800F028F97B6800221A77BB6803F0AE
:10298C000103002B0CD0FB6803F00103002B07D0D4
:10299C007B681B686FF001021A617868FEF7F2FD24
:1029AC00BB6803F08003002B0CD0FB6803F08003A2
:1029BC00002B07D07B681B686FF080021A61786867
:1029CC0000F06FFABB6803F04003002B0CD0FB68DF
:1029DC0003F04003002B07D07B681B686FF04002AC
:1029EC001A61786800F0F8F8BB6803F02003002B3C
:1029FC000CD0FB6803F02003002B07D07B681B680E
:102A0C006FF020021A61786800F042FA00BF1037AC
:102A1C00BD4680BD80B584B000AF786039600023BE
:102A2C00FB737B6893F83C30012B01D10223B4E09B
:102A3C007B68012283F83C207B68022283F83D20CE
:102A4C007B681B689B68BB60BB6823F07703BB602B
:102A5C00BB6823F47F43BB607B681B68BA689A60D1
:102A6C003B681B68B3F5005F3ED0B3F5005F00F226
:102A7C008780B3F5805F00F08680B3F5805F7FD8E8
:102A8C00702B1AD0702B7BD8602B50D0602B77D842
:102A9C00502B3CD0502B73D8402B58D0402B6FD898
:102AAC00302B64D0302B6BD8202B60D0202B67D8E8
:102ABC00002B5CD0102B5AD062E07B6818683B6806
:102ACC0099683B685A683B68DB6800F06AF97B6878
:102ADC001B689B68BB60BB6843F07703BB607B687B
:102AEC001B68BA689A604FE07B6818683B68996805
:102AFC003B685A683B68DB6800F053F97B681B68DD
:102B0C009A687B681B6842F480429A603CE07B6860
:102B1C0018683B6859683B68DB681A4600F0CAF8CD
:102B2C007B681B685021184600F021F92CE07B686B
:102B3C0018683B6859683B68DB681A4600F0E8F88F
:102B4C007B681B686021184600F011F91CE07B685B
:102B5C0018683B6859683B68DB681A4600F0AAF8AD
:102B6C007B681B684021184600F001F90CE07B687B
:102B7C001A683B681B681946104600F0F8F803E029
:102B8C000123FB7300E000BF7B68012283F83D202A
:102B9C007B68002283F83C20FB7B18461037BD462F
:102BAC0080BD80B483B000AF786000BF0C37BD46E9
:102BBC0080BC704780B483B000AF786000BF0C3726
:102BCC00BD4680BC704780B483B000AF786000BF56
:102BDC000C37BD4680BC704780B483B000AF7860C2
:102BEC0000BF0C37BD4680BC7047000080B485B078
:102BFC0000AF786039607B681B68FB607B682B4A90
:102C0C00934207D07B68B3F1804F03D07B68284A8E
:102C1C00934208D1FB6823F07003FB603B685B6850
:102C2C00FA681343FB607B68204A934207D07B68A9
:102C3C00B3F1804F03D07B681D4A934208D1FB68E7
:102C4C0023F44073FB603B68DB68FA681343FB605A
:102C5C00FB6823F080023B685B691343FB607B6875
:102C6C00FA681A603B689A687B68DA623B681A6893
:102C7C007B689A627B680D4A934203D13B681A6960
:102C8C007B681A637B6801225A617B681B6903F0BD
:102C9C000103002B05D07B681B6923F001027B68C4
:102CAC001A6100BF1437BD4680BC7047002C014030
:102CBC000004004080B487B000AFF860B9607A605F
:102CCC00FB681B6A7B61FB681B6A23F00102FB68D3
:102CDC001A62FB689B693B613B6923F0F0033B6123
:102CEC007B681B013A6913433B617B6923F00A0340
:102CFC007B617A69BB6813437B61FB683A699A61B3
:102D0C00FB687A691A6200BF1C37BD4680BC7047ED
:102D1C0080B487B000AFF860B9607A60FB681B6A5A
:102D2C007B61FB681B6A23F01002FB681A62FB686C
:102D3C009B693B613B6923F470433B617B681B03DC
:102D4C003A6913433B617B6923F0A0037B61BB6849
:102D5C001B017A6913437B61FB683A699A61FB68D2
:102D6C007A691A6200BF1C37BD4680BC704780B4BC
:102D7C0085B000AF786039607B689B68FB60FB684E
:102D8C0023F07003FB603A68FB68134343F00703BE
:102D9C00FB607B68FA689A6000BF1437BD4680BC44
:102DAC00704780B487B000AFF860B9607A603B6060
:102DBC00FB689B687B617B6923F47F437B613B6889
:102DCC001A027B681A43BB6813437A6913437B610D
:102DDC00FB687A699A6000BF1C37BD4680BC70479F
:102DEC0080B485B000AF786039607B6893F83C3074
:102DFC00012B01D1022341E07B68012283F83C20A6
:102E0C007B68022283F83D207B681B685B68FB6053
:102E1C007B681B689B68BB60FB6823F07003FB60DE
:102E2C003B681B68FA681343FB607B681B68FA6895
:102E3C005A607B681B68144A934209D07B681B68F4
:102E4C00B3F1804F04D07B681B68104A93420CD1BD
:102E5C00BB6823F08003BB603B685B68BA681343B4
:102E6C00BB607B681B68BA689A607B68012283F838
:102E7C003D207B68002283F83C2000231846143741
:102E8C00BD4680BC704700BF002C014000040040D0
:102E9C0080B483B000AF786000BF0C37BD4680BCF7
:102EAC00704780B483B000AF786000BF0C37BD466C
:102EBC0080BC704770B500260C4D0D4C641BA410E3
:102ECC00A64209D100F022F800260A4D0A4C641BD8
:102EDC00A410A64205D170BD55F8043B98470136A5
:102EEC00EEE755F8043B98470136F2E7542F0008FB
:102EFC00542F0008542F0008582F00080346024492
:102F0C00934200D1704703F8011BF9E7F8B500BFF5
:102F1C00F8BC08BC9E467047F8B500BFF8BC08BCAE
:042F2C009E46704706
:102F30000000000000000000010203040607080969
:102F400002030405060708090A0B0C0D0E0F1010EA
:042F5000010200007A
:042F5400310100083F
:042F58000D0100085F
:102F5C000A00000002000000080000000100000050
:102F6C00010000000100000001000000F40100005D
:102F7C000100000001000000010000000100000041
:102F8C00F40100000100000001000000010000003D
:102F9C0001000000F401000001000000020000002C
:102FAC0003000000040000000A00000000127A0078
:082FBC001000000001000000FC
:04000005080018A136
:00000001FF
